{
  "contractName": "Certification",
  "abi": [
    {
      "anonymous": false,
      "inputs": [
        {
          "indexed": false,
          "internalType": "string",
          "name": "Intitule",
          "type": "string"
        },
        {
          "indexed": false,
          "internalType": "string",
          "name": "Etablissement",
          "type": "string"
        },
        {
          "indexed": false,
          "internalType": "string",
          "name": "Nom",
          "type": "string"
        },
        {
          "indexed": false,
          "internalType": "string",
          "name": "Prenom",
          "type": "string"
        },
        {
          "indexed": false,
          "internalType": "string",
          "name": "Document",
          "type": "string"
        }
      ],
      "name": "EventCertification",
      "type": "event"
    },
    {
      "inputs": [
        {
          "internalType": "string",
          "name": "_intitule",
          "type": "string"
        },
        {
          "internalType": "string",
          "name": "_etablissement",
          "type": "string"
        },
        {
          "internalType": "string",
          "name": "_etablissementHash",
          "type": "string"
        },
        {
          "internalType": "string",
          "name": "_documentHash",
          "type": "string"
        },
        {
          "internalType": "string",
          "name": "_documentLink",
          "type": "string"
        },
        {
          "internalType": "string",
          "name": "_nom",
          "type": "string"
        },
        {
          "internalType": "string",
          "name": "_prenom",
          "type": "string"
        },
        {
          "internalType": "string",
          "name": "_etudiantHash",
          "type": "string"
        }
      ],
      "name": "NouveauDiplome",
      "outputs": [],
      "stateMutability": "nonpayable",
      "type": "function"
    },
    {
      "inputs": [
        {
          "internalType": "string",
          "name": "_hash",
          "type": "string"
        }
      ],
      "name": "ObtenirDiplome",
      "outputs": [
        {
          "components": [
            {
              "internalType": "string",
              "name": "intitule",
              "type": "string"
            },
            {
              "internalType": "string",
              "name": "etablissement",
              "type": "string"
            },
            {
              "internalType": "string",
              "name": "etablissementHash",
              "type": "string"
            },
            {
              "internalType": "string",
              "name": "documentHash",
              "type": "string"
            },
            {
              "internalType": "string",
              "name": "documentLink",
              "type": "string"
            },
            {
              "internalType": "string",
              "name": "nom",
              "type": "string"
            },
            {
              "internalType": "string",
              "name": "prenom",
              "type": "string"
            },
            {
              "internalType": "string",
              "name": "etudiantHash",
              "type": "string"
            }
          ],
          "internalType": "struct Certification.Diplome",
          "name": "",
          "type": "tuple"
        }
      ],
      "stateMutability": "view",
      "type": "function",
      "constant": true
    },
    {
      "inputs": [],
      "name": "NombreTotalDeDiplome",
      "outputs": [
        {
          "internalType": "uint256",
          "name": "",
          "type": "uint256"
        }
      ],
      "stateMutability": "view",
      "type": "function",
      "constant": true
    },
    {
      "inputs": [
        {
          "internalType": "string",
          "name": "_etablissementHash",
          "type": "string"
        }
      ],
      "name": "NombreDeDiplomeParEtablissement",
      "outputs": [
        {
          "internalType": "uint256",
          "name": "",
          "type": "uint256"
        }
      ],
      "stateMutability": "view",
      "type": "function",
      "constant": true
    }
  ],
  "bytecode": "0x608060405234801561001057600080fd5b506111bc806100206000396000f3fe608060405234801561001057600080fd5b506004361061004c5760003560e01c80633e58f7cb14610051578063aeea3cdc1461006d578063c1182eb91461008b578063f998e1b0146100bb575b600080fd5b61006b60048036038101906100669190610a6e565b6100eb565b005b6100756102b3565b6040516100829190610c1d565b60405180910390f35b6100a560048036038101906100a09190610c38565b6102c0565b6040516100b29190610dea565b60405180910390f35b6100d560048036038101906100d09190610c38565b610789565b6040516100e29190610c1d565b60405180910390f35b60018190806001815401808255809150506001900390600052602060002001600090919091909150908051906020019061012692919061082c565b50604051806101000160405280898152602001888152602001878152602001868152602001858152602001848152602001838152602001828152506000826040516101719190610e48565b9081526020016040518091039020600082015181600001908051906020019061019b92919061082c565b5060208201518160010190805190602001906101b892919061082c565b5060408201518160020190805190602001906101d592919061082c565b5060608201518160030190805190602001906101f292919061082c565b50608082015181600401908051906020019061020f92919061082c565b5060a082015181600501908051906020019061022c92919061082c565b5060c082015181600601908051906020019061024992919061082c565b5060e082015181600701908051906020019061026692919061082c565b509050507ff70ef443b11d5d1cc9026f7136ae3380aa4264a22d172edc038a71f86c410a4a88888585886040516102a1959493929190610ea9565b60405180910390a15050505050505050565b6000600180549050905090565b6102c86108b2565b6000826040516102d89190610e48565b90815260200160405180910390206040518061010001604052908160008201805461030290610f4e565b80601f016020809104026020016040519081016040528092919081815260200182805461032e90610f4e565b801561037b5780601f106103505761010080835404028352916020019161037b565b820191906000526020600020905b81548152906001019060200180831161035e57829003601f168201915b5050505050815260200160018201805461039490610f4e565b80601f01602080910402602001604051908101604052809291908181526020018280546103c090610f4e565b801561040d5780601f106103e25761010080835404028352916020019161040d565b820191906000526020600020905b8154815290600101906020018083116103f057829003601f168201915b5050505050815260200160028201805461042690610f4e565b80601f016020809104026020016040519081016040528092919081815260200182805461045290610f4e565b801561049f5780601f106104745761010080835404028352916020019161049f565b820191906000526020600020905b81548152906001019060200180831161048257829003601f168201915b505050505081526020016003820180546104b890610f4e565b80601f01602080910402602001604051908101604052809291908181526020018280546104e490610f4e565b80156105315780601f1061050657610100808354040283529160200191610531565b820191906000526020600020905b81548152906001019060200180831161051457829003601f168201915b5050505050815260200160048201805461054a90610f4e565b80601f016020809104026020016040519081016040528092919081815260200182805461057690610f4e565b80156105c35780601f10610598576101008083540402835291602001916105c3565b820191906000526020600020905b8154815290600101906020018083116105a657829003601f168201915b505050505081526020016005820180546105dc90610f4e565b80601f016020809104026020016040519081016040528092919081815260200182805461060890610f4e565b80156106555780601f1061062a57610100808354040283529160200191610655565b820191906000526020600020905b81548152906001019060200180831161063857829003601f168201915b5050505050815260200160068201805461066e90610f4e565b80601f016020809104026020016040519081016040528092919081815260200182805461069a90610f4e565b80156106e75780601f106106bc576101008083540402835291602001916106e7565b820191906000526020600020905b8154815290600101906020018083116106ca57829003601f168201915b5050505050815260200160078201805461070090610f4e565b80601f016020809104026020016040519081016040528092919081815260200182805461072c90610f4e565b80156107795780601f1061074e57610100808354040283529160200191610779565b820191906000526020600020905b81548152906001019060200180831161075c57829003601f168201915b5050505050815250509050919050565b6000806000905060005b6001805490508110156108225783805190602001206000600183815481106107be576107bd610f7f565b5b906000526020600020016040516107d59190611042565b90815260200160405180910390206002016040516107f391906110f8565b60405180910390200361080f57818061080b9061113e565b9250505b808061081a9061113e565b915050610793565b5080915050919050565b82805461083890610f4e565b90600052602060002090601f01602090048101928261085a57600085556108a1565b82601f1061087357805160ff19168380011785556108a1565b828001600101855582156108a1579182015b828111156108a0578251825591602001919060010190610885565b5b5090506108ae91906108f7565b5090565b60405180610100016040528060608152602001606081526020016060815260200160608152602001606081526020016060815260200160608152602001606081525090565b5b808211156109105760008160009055506001016108f8565b5090565b6000604051905090565b600080fd5b600080fd5b600080fd5b600080fd5b6000601f19601f8301169050919050565b7f4e487b7100000000000000000000000000000000000000000000000000000000600052604160045260246000fd5b61097b82610932565b810181811067ffffffffffffffff8211171561099a57610999610943565b5b80604052505050565b60006109ad610914565b90506109b98282610972565b919050565b600067ffffffffffffffff8211156109d9576109d8610943565b5b6109e282610932565b9050602081019050919050565b82818337600083830152505050565b6000610a11610a0c846109be565b6109a3565b905082815260208101848484011115610a2d57610a2c61092d565b5b610a388482856109ef565b509392505050565b600082601f830112610a5557610a54610928565b5b8135610a658482602086016109fe565b91505092915050565b600080600080600080600080610100898b031215610a8f57610a8e61091e565b5b600089013567ffffffffffffffff811115610aad57610aac610923565b5b610ab98b828c01610a40565b985050602089013567ffffffffffffffff811115610ada57610ad9610923565b5b610ae68b828c01610a40565b975050604089013567ffffffffffffffff811115610b0757610b06610923565b5b610b138b828c01610a40565b965050606089013567ffffffffffffffff811115610b3457610b33610923565b5b610b408b828c01610a40565b955050608089013567ffffffffffffffff811115610b6157610b60610923565b5b610b6d8b828c01610a40565b94505060a089013567ffffffffffffffff811115610b8e57610b8d610923565b5b610b9a8b828c01610a40565b93505060c089013567ffffffffffffffff811115610bbb57610bba610923565b5b610bc78b828c01610a40565b92505060e089013567ffffffffffffffff811115610be857610be7610923565b5b610bf48b828c01610a40565b9150509295985092959890939650565b6000819050919050565b610c1781610c04565b82525050565b6000602082019050610c326000830184610c0e565b92915050565b600060208284031215610c4e57610c4d61091e565b5b600082013567ffffffffffffffff811115610c6c57610c6b610923565b5b610c7884828501610a40565b91505092915050565b600081519050919050565b600082825260208201905092915050565b60005b83811015610cbb578082015181840152602081019050610ca0565b83811115610cca576000848401525b50505050565b6000610cdb82610c81565b610ce58185610c8c565b9350610cf5818560208601610c9d565b610cfe81610932565b840191505092915050565b6000610100830160008301518482036000860152610d278282610cd0565b91505060208301518482036020860152610d418282610cd0565b91505060408301518482036040860152610d5b8282610cd0565b91505060608301518482036060860152610d758282610cd0565b91505060808301518482036080860152610d8f8282610cd0565b91505060a083015184820360a0860152610da98282610cd0565b91505060c083015184820360c0860152610dc38282610cd0565b91505060e083015184820360e0860152610ddd8282610cd0565b9150508091505092915050565b60006020820190508181036000830152610e048184610d09565b905092915050565b600081905092915050565b6000610e2282610c81565b610e2c8185610e0c565b9350610e3c818560208601610c9d565b80840191505092915050565b6000610e548284610e17565b915081905092915050565b600082825260208201905092915050565b6000610e7b82610c81565b610e858185610e5f565b9350610e95818560208601610c9d565b610e9e81610932565b840191505092915050565b600060a0820190508181036000830152610ec38188610e70565b90508181036020830152610ed78187610e70565b90508181036040830152610eeb8186610e70565b90508181036060830152610eff8185610e70565b90508181036080830152610f138184610e70565b90509695505050505050565b7f4e487b7100000000000000000000000000000000000000000000000000000000600052602260045260246000fd5b60006002820490506001821680610f6657607f821691505b602082108103610f7957610f78610f1f565b5b50919050565b7f4e487b7100000000000000000000000000000000000000000000000000000000600052603260045260246000fd5b60008190508160005260206000209050919050565b60008154610fd081610f4e565b610fda8186610e0c565b94506001821660008114610ff5576001811461100657611039565b60ff19831686528186019350611039565b61100f85610fae565b60005b8381101561103157815481890152600182019150602081019050611012565b838801955050505b50505092915050565b600061104e8284610fc3565b915081905092915050565b600081905092915050565b60008190508160005260206000209050919050565b6000815461108681610f4e565b6110908186611059565b945060018216600081146110ab57600181146110bc576110ef565b60ff198316865281860193506110ef565b6110c585611064565b60005b838110156110e7578154818901526001820191506020810190506110c8565b838801955050505b50505092915050565b60006111048284611079565b915081905092915050565b7f4e487b7100000000000000000000000000000000000000000000000000000000600052601160045260246000fd5b600061114982610c04565b91507fffffffffffffffffffffffffffffffffffffffffffffffffffffffffffffffff820361117b5761117a61110f565b5b60018201905091905056fea2646970667358221220b5c2300c10f16b216acfba7fd63000af45a28db438f71cd73e20f91d875584bb64736f6c634300080d0033",
  "immutableReferences": {},
  "source": "pragma solidity 0.8.13;\n\ncontract Certification {\n    struct Diplome {\n        string intitule;\n        string etablissement;\n        string etablissementHash;\n        string documentHash;\n        string documentLink;\n        string nom;\n        string prenom;\n        string etudiantHash;\n    }\n    mapping(string => Diplome) private Diplomes;\n    string[] private diplomes_keys;\n\n    function NouveauDiplome(\n        string memory _intitule,\n        string memory _etablissement,\n        string memory _etablissementHash,\n        string memory _documentHash,\n        string memory _documentLink,\n        string memory _nom,\n        string memory _prenom,\n        string memory _etudiantHash\n    ) public {\n        diplomes_keys.push(_etudiantHash);\n        Diplomes[_etudiantHash] = Diplome({\n            intitule: _intitule,\n            etablissement: _etablissement,\n            etablissementHash: _etablissementHash,\n            documentHash: _documentHash,\n            documentLink: _documentLink,\n            nom: _nom,\n            prenom: _prenom,\n            etudiantHash: _etudiantHash\n        });\n        emit EventCertification(\n            _intitule,\n            _etablissement,\n            _nom,\n            _prenom,\n            _documentLink\n        );\n    }\n\n    event EventCertification(\n        string Intitule,\n        string Etablissement,\n        string Nom,\n        string Prenom,\n        string Document\n    );\n\n    function ObtenirDiplome(string memory _hash)\n        public\n        view\n        returns (Diplome memory)\n    {\n        return Diplomes[_hash];\n    }\n\n    function NombreTotalDeDiplome() public view returns (uint256) {\n        return diplomes_keys.length;\n    }\n\n    function NombreDeDiplomeParEtablissement(string memory _etablissementHash)\n        public\n        view\n        returns (uint256)\n    {\n        uint256 nombre = 0;\n        for (uint256 i = 0; i < diplomes_keys.length; i++) {\n            if (\n                keccak256(\n                    bytes(Diplomes[diplomes_keys[i]].etablissementHash)\n                ) == keccak256(bytes(_etablissementHash))\n            ) {\n                nombre++;\n            }\n        }\n\n        return nombre;\n    }\n}\n",
  "sourcePath": "/Users/naim/Code/DiplomaHub/DiplomaHub-app/Truffle/contracts/Certification.sol",
  "compiler": {
    "name": "solc",
    "version": "0.8.13+commit.abaa5c0e.Emscripten.clang"
  },
  "schemaVersion": "3.4.7",
  "updatedAt": "2022-05-04T00:12:40.871Z",
  "networkType": "ethereum",
  "devdoc": {
    "kind": "dev",
    "methods": {},
    "version": 1
  },
  "userdoc": {
    "kind": "user",
    "methods": {},
    "version": 1
  }
}