{
  "contractName": "Certification",
  "abi": [
    {
      "anonymous": false,
      "inputs": [
        {
          "indexed": false,
          "internalType": "string",
          "name": "Etablissement",
          "type": "string"
        },
        {
          "indexed": false,
          "internalType": "string",
          "name": "Nom",
          "type": "string"
        },
        {
          "indexed": false,
          "internalType": "string",
          "name": "Prenom",
          "type": "string"
        },
        {
          "indexed": false,
          "internalType": "string",
          "name": "Document",
          "type": "string"
        }
      ],
      "name": "EventCertification",
      "type": "event"
    },
    {
      "inputs": [
        {
          "internalType": "string",
          "name": "_etablissement",
          "type": "string"
        },
        {
          "internalType": "string",
          "name": "_etablissementHash",
          "type": "string"
        },
        {
          "internalType": "string",
          "name": "_documentHash",
          "type": "string"
        },
        {
          "internalType": "string",
          "name": "_documentLink",
          "type": "string"
        },
        {
          "internalType": "string",
          "name": "_nom",
          "type": "string"
        },
        {
          "internalType": "string",
          "name": "_prenom",
          "type": "string"
        },
        {
          "internalType": "string",
          "name": "_etudiantHash",
          "type": "string"
        }
      ],
      "name": "NouveauDiplome",
      "outputs": [],
      "stateMutability": "nonpayable",
      "type": "function"
    },
    {
      "inputs": [
        {
          "internalType": "string",
          "name": "_hash",
          "type": "string"
        }
      ],
      "name": "ObtenirDiplome",
      "outputs": [
        {
          "components": [
            {
              "internalType": "string",
              "name": "etablissement",
              "type": "string"
            },
            {
              "internalType": "string",
              "name": "etablissementHash",
              "type": "string"
            },
            {
              "internalType": "string",
              "name": "documentHash",
              "type": "string"
            },
            {
              "internalType": "string",
              "name": "documentLink",
              "type": "string"
            },
            {
              "internalType": "string",
              "name": "nom",
              "type": "string"
            },
            {
              "internalType": "string",
              "name": "prenom",
              "type": "string"
            },
            {
              "internalType": "string",
              "name": "etudiantHash",
              "type": "string"
            }
          ],
          "internalType": "struct Certification.Diplome",
          "name": "",
          "type": "tuple"
        }
      ],
      "stateMutability": "view",
      "type": "function",
      "constant": true
    }
  ],
  "bytecode": "0x608060405234801561001057600080fd5b50610d0f806100206000396000f3fe608060405234801561001057600080fd5b50600436106100365760003560e01c8063890c7dd71461003b578063c1182eb914610057575b600080fd5b6100556004803603810190610050919061085c565b610087565b005b610071600480360381019061006c91906109c2565b6101ec565b60405161007e9190610b59565b60405180910390f35b6040518060e00160405280888152602001878152602001868152602001858152602001848152602001838152602001828152506000826040516100ca9190610bb7565b908152602001604051809103902060008201518160000190805190602001906100f4929190610622565b506020820151816001019080519060200190610111929190610622565b50604082015181600201908051906020019061012e929190610622565b50606082015181600301908051906020019061014b929190610622565b506080820151816004019080519060200190610168929190610622565b5060a0820151816005019080519060200190610185929190610622565b5060c08201518160060190805190602001906101a2929190610622565b509050507fdb5d8753dc364a29d97bb2d75bb5287237de8b65a891a1efbd9081059edcb22e878484876040516101db9493929190610c18565b60405180910390a150505050505050565b6101f46106a8565b6000826040516102049190610bb7565b90815260200160405180910390206040518060e001604052908160008201805461022d90610ca8565b80601f016020809104026020016040519081016040528092919081815260200182805461025990610ca8565b80156102a65780601f1061027b576101008083540402835291602001916102a6565b820191906000526020600020905b81548152906001019060200180831161028957829003601f168201915b505050505081526020016001820180546102bf90610ca8565b80601f01602080910402602001604051908101604052809291908181526020018280546102eb90610ca8565b80156103385780601f1061030d57610100808354040283529160200191610338565b820191906000526020600020905b81548152906001019060200180831161031b57829003601f168201915b5050505050815260200160028201805461035190610ca8565b80601f016020809104026020016040519081016040528092919081815260200182805461037d90610ca8565b80156103ca5780601f1061039f576101008083540402835291602001916103ca565b820191906000526020600020905b8154815290600101906020018083116103ad57829003601f168201915b505050505081526020016003820180546103e390610ca8565b80601f016020809104026020016040519081016040528092919081815260200182805461040f90610ca8565b801561045c5780601f106104315761010080835404028352916020019161045c565b820191906000526020600020905b81548152906001019060200180831161043f57829003601f168201915b5050505050815260200160048201805461047590610ca8565b80601f01602080910402602001604051908101604052809291908181526020018280546104a190610ca8565b80156104ee5780601f106104c3576101008083540402835291602001916104ee565b820191906000526020600020905b8154815290600101906020018083116104d157829003601f168201915b5050505050815260200160058201805461050790610ca8565b80601f016020809104026020016040519081016040528092919081815260200182805461053390610ca8565b80156105805780601f1061055557610100808354040283529160200191610580565b820191906000526020600020905b81548152906001019060200180831161056357829003601f168201915b5050505050815260200160068201805461059990610ca8565b80601f01602080910402602001604051908101604052809291908181526020018280546105c590610ca8565b80156106125780601f106105e757610100808354040283529160200191610612565b820191906000526020600020905b8154815290600101906020018083116105f557829003601f168201915b5050505050815250509050919050565b82805461062e90610ca8565b90600052602060002090601f0160209004810192826106505760008555610697565b82601f1061066957805160ff1916838001178555610697565b82800160010185558215610697579182015b8281111561069657825182559160200191906001019061067b565b5b5090506106a491906106e5565b5090565b6040518060e00160405280606081526020016060815260200160608152602001606081526020016060815260200160608152602001606081525090565b5b808211156106fe5760008160009055506001016106e6565b5090565b6000604051905090565b600080fd5b600080fd5b600080fd5b600080fd5b6000601f19601f8301169050919050565b7f4e487b7100000000000000000000000000000000000000000000000000000000600052604160045260246000fd5b61076982610720565b810181811067ffffffffffffffff8211171561078857610787610731565b5b80604052505050565b600061079b610702565b90506107a78282610760565b919050565b600067ffffffffffffffff8211156107c7576107c6610731565b5b6107d082610720565b9050602081019050919050565b82818337600083830152505050565b60006107ff6107fa846107ac565b610791565b90508281526020810184848401111561081b5761081a61071b565b5b6108268482856107dd565b509392505050565b600082601f83011261084357610842610716565b5b81356108538482602086016107ec565b91505092915050565b600080600080600080600060e0888a03121561087b5761087a61070c565b5b600088013567ffffffffffffffff81111561089957610898610711565b5b6108a58a828b0161082e565b975050602088013567ffffffffffffffff8111156108c6576108c5610711565b5b6108d28a828b0161082e565b965050604088013567ffffffffffffffff8111156108f3576108f2610711565b5b6108ff8a828b0161082e565b955050606088013567ffffffffffffffff8111156109205761091f610711565b5b61092c8a828b0161082e565b945050608088013567ffffffffffffffff81111561094d5761094c610711565b5b6109598a828b0161082e565b93505060a088013567ffffffffffffffff81111561097a57610979610711565b5b6109868a828b0161082e565b92505060c088013567ffffffffffffffff8111156109a7576109a6610711565b5b6109b38a828b0161082e565b91505092959891949750929550565b6000602082840312156109d8576109d761070c565b5b600082013567ffffffffffffffff8111156109f6576109f5610711565b5b610a028482850161082e565b91505092915050565b600081519050919050565b600082825260208201905092915050565b60005b83811015610a45578082015181840152602081019050610a2a565b83811115610a54576000848401525b50505050565b6000610a6582610a0b565b610a6f8185610a16565b9350610a7f818560208601610a27565b610a8881610720565b840191505092915050565b600060e0830160008301518482036000860152610ab08282610a5a565b91505060208301518482036020860152610aca8282610a5a565b91505060408301518482036040860152610ae48282610a5a565b91505060608301518482036060860152610afe8282610a5a565b91505060808301518482036080860152610b188282610a5a565b91505060a083015184820360a0860152610b328282610a5a565b91505060c083015184820360c0860152610b4c8282610a5a565b9150508091505092915050565b60006020820190508181036000830152610b738184610a93565b905092915050565b600081905092915050565b6000610b9182610a0b565b610b9b8185610b7b565b9350610bab818560208601610a27565b80840191505092915050565b6000610bc38284610b86565b915081905092915050565b600082825260208201905092915050565b6000610bea82610a0b565b610bf48185610bce565b9350610c04818560208601610a27565b610c0d81610720565b840191505092915050565b60006080820190508181036000830152610c328187610bdf565b90508181036020830152610c468186610bdf565b90508181036040830152610c5a8185610bdf565b90508181036060830152610c6e8184610bdf565b905095945050505050565b7f4e487b7100000000000000000000000000000000000000000000000000000000600052602260045260246000fd5b60006002820490506001821680610cc057607f821691505b602082108103610cd357610cd2610c79565b5b5091905056fea264697066735822122055f8ec2d99b29fa467cd7975b8d70a016ddf95ca00f25500122408f57ef75b2a64736f6c634300080d0033",
  "immutableReferences": {},
  "source": "pragma solidity 0.8.13;\n\ncontract Certification {\n    struct Diplome {\n        string etablissement;\n        string etablissementHash;\n        string documentHash;\n        string documentLink;\n        string nom;\n        string prenom;\n        string etudiantHash;\n    }\n    mapping(string => Diplome) private Diplomes;\n\n    function NouveauDiplome(\n        string memory _etablissement,\n        string memory _etablissementHash,\n        string memory _documentHash,\n        string memory _documentLink,\n        string memory _nom,\n          string memory _prenom,\n        string memory _etudiantHash\n    ) public {\n        Diplomes[_etudiantHash] = Diplome({\n            etablissement: _etablissement,\n            etablissementHash: _etablissementHash,\n            documentHash: _documentHash,\n            documentLink: _documentLink,\n           nom:_nom,\n           prenom:_prenom,\n            etudiantHash: _etudiantHash\n        });\n        emit EventCertification(_etablissement, _nom, _prenom, _documentLink);\n    }\n \n    event EventCertification(string Etablissement,string Nom, string Prenom, string Document);\n    \n    function ObtenirDiplome(string memory _hash)\n        public\n        view\n        returns (Diplome memory)\n    {\n        return Diplomes[_hash];\n    }\n}\n",
  "sourcePath": "/Users/naim/Code/DiplomaHub/DiplomaHub-app/Truffle/contracts/Certification.sol",
  "compiler": {
    "name": "solc",
    "version": "0.8.13+commit.abaa5c0e.Emscripten.clang"
  },
  "schemaVersion": "3.4.7",
  "updatedAt": "2022-05-03T20:16:57.408Z",
  "networkType": "ethereum",
  "devdoc": {
    "kind": "dev",
    "methods": {},
    "version": 1
  },
  "userdoc": {
    "kind": "user",
    "methods": {},
    "version": 1
  }
}